{
  "_format": "hh-sol-artifact-1",
  "contractName": "ProductFactory",
  "sourceName": "contracts/Campaigns.sol",
  "abi": [
    {
      "anonymous": false,
      "inputs": [
        {
          "indexed": true,
          "internalType": "string",
          "name": "productname",
          "type": "string"
        },
        {
          "indexed": false,
          "internalType": "string",
          "name": "productcompany",
          "type": "string"
        },
        {
          "indexed": false,
          "internalType": "string",
          "name": "imageuri",
          "type": "string"
        },
        {
          "indexed": true,
          "internalType": "string",
          "name": "productcategory",
          "type": "string"
        },
        {
          "indexed": true,
          "internalType": "address",
          "name": "owner",
          "type": "address"
        },
        {
          "indexed": false,
          "internalType": "address",
          "name": "productaddress",
          "type": "address"
        }
      ],
      "name": "productcreated",
      "type": "event"
    },
    {
      "inputs": [
        {
          "internalType": "string",
          "name": "productname",
          "type": "string"
        },
        {
          "internalType": "string",
          "name": "productcompany",
          "type": "string"
        },
        {
          "internalType": "string",
          "name": "imageuri",
          "type": "string"
        },
        {
          "internalType": "string",
          "name": "productcategory",
          "type": "string"
        }
      ],
      "name": "createproduct",
      "outputs": [],
      "stateMutability": "nonpayable",
      "type": "function"
    },
    {
      "inputs": [
        {
          "internalType": "uint256",
          "name": "",
          "type": "uint256"
        }
      ],
      "name": "deployedproduct",
      "outputs": [
        {
          "internalType": "address",
          "name": "",
          "type": "address"
        }
      ],
      "stateMutability": "view",
      "type": "function"
    }
  ],
  "bytecode": "0x608060405234801561001057600080fd5b50611d73806100206000396000f3fe60806040523480156200001157600080fd5b50600436106200003a5760003560e01c8063045f29bd146200003f57806342770a761462000075575b600080fd5b6200005d600480360381019062000057919062000261565b62000095565b6040516200006c9190620002d8565b60405180910390f35b6200009360048036038101906200008d919062000457565b620000d5565b005b60008181548110620000a657600080fd5b906000526020600020016000915054906101000a900473ffffffffffffffffffffffffffffffffffffffff1681565b6000848333604051620000e89062000204565b620000f693929190620005ce565b604051809103906000f08015801562000113573d6000803e3d6000fd5b5090506000819080600181540180825580915050600190039060005260206000200160009091909190916101000a81548173ffffffffffffffffffffffffffffffffffffffff021916908373ffffffffffffffffffffffffffffffffffffffff1602179055503373ffffffffffffffffffffffffffffffffffffffff1682604051620001a091906200065b565b604051809103902086604051620001b891906200065b565b60405180910390207f6131c5863b0b6bbd209667d359f407fb4c50e74f8490d9637d418339b34ab646878786604051620001f593929190620005ce565b60405180910390a45050505050565b6116c9806200067583390190565b6000604051905090565b600080fd5b600080fd5b6000819050919050565b6200023b8162000226565b81146200024757600080fd5b50565b6000813590506200025b8162000230565b92915050565b6000602082840312156200027a57620002796200021c565b5b60006200028a848285016200024a565b91505092915050565b600073ffffffffffffffffffffffffffffffffffffffff82169050919050565b6000620002c08262000293565b9050919050565b620002d281620002b3565b82525050565b6000602082019050620002ef6000830184620002c7565b92915050565b600080fd5b600080fd5b6000601f19601f8301169050919050565b7f4e487b7100000000000000000000000000000000000000000000000000000000600052604160045260246000fd5b6200034a82620002ff565b810181811067ffffffffffffffff821117156200036c576200036b62000310565b5b80604052505050565b60006200038162000212565b90506200038f82826200033f565b919050565b600067ffffffffffffffff821115620003b257620003b162000310565b5b620003bd82620002ff565b9050602081019050919050565b82818337600083830152505050565b6000620003f0620003ea8462000394565b62000375565b9050828152602081018484840111156200040f576200040e620002fa565b5b6200041c848285620003ca565b509392505050565b600082601f8301126200043c576200043b620002f5565b5b81356200044e848260208601620003d9565b91505092915050565b600080600080608085870312156200047457620004736200021c565b5b600085013567ffffffffffffffff81111562000495576200049462000221565b5b620004a38782880162000424565b945050602085013567ffffffffffffffff811115620004c757620004c662000221565b5b620004d58782880162000424565b935050604085013567ffffffffffffffff811115620004f957620004f862000221565b5b620005078782880162000424565b925050606085013567ffffffffffffffff8111156200052b576200052a62000221565b5b620005398782880162000424565b91505092959194509250565b600081519050919050565b600082825260208201905092915050565b60005b838110156200058157808201518184015260208101905062000564565b60008484015250505050565b60006200059a8262000545565b620005a6818562000550565b9350620005b881856020860162000561565b620005c381620002ff565b840191505092915050565b60006060820190508181036000830152620005ea81866200058d565b905081810360208301526200060081856200058d565b9050620006116040830184620002c7565b949350505050565b600081905092915050565b6000620006318262000545565b6200063d818562000619565b93506200064f81856020860162000561565b80840191505092915050565b600062000669828462000624565b91508190509291505056fe60806040523480156200001157600080fd5b50604051620016c9380380620016c983398181016040528101906200003791906200029d565b826000908162000048919062000582565b5081600190816200005a919062000582565b5080600260006101000a81548173ffffffffffffffffffffffffffffffffffffffff021916908373ffffffffffffffffffffffffffffffffffffffff16021790555050505062000669565b6000604051905090565b600080fd5b600080fd5b600080fd5b600080fd5b6000601f19601f8301169050919050565b7f4e487b7100000000000000000000000000000000000000000000000000000000600052604160045260246000fd5b6200010e82620000c3565b810181811067ffffffffffffffff8211171562000130576200012f620000d4565b5b80604052505050565b600062000145620000a5565b905062000153828262000103565b919050565b600067ffffffffffffffff821115620001765762000175620000d4565b5b6200018182620000c3565b9050602081019050919050565b60005b83811015620001ae57808201518184015260208101905062000191565b60008484015250505050565b6000620001d1620001cb8462000158565b62000139565b905082815260208101848484011115620001f057620001ef620000be565b5b620001fd8482856200018e565b509392505050565b600082601f8301126200021d576200021c620000b9565b5b81516200022f848260208601620001ba565b91505092915050565b600073ffffffffffffffffffffffffffffffffffffffff82169050919050565b6000620002658262000238565b9050919050565b620002778162000258565b81146200028357600080fd5b50565b60008151905062000297816200026c565b92915050565b600080600060608486031215620002b957620002b8620000af565b5b600084015167ffffffffffffffff811115620002da57620002d9620000b4565b5b620002e88682870162000205565b935050602084015167ffffffffffffffff8111156200030c576200030b620000b4565b5b6200031a8682870162000205565b92505060406200032d8682870162000286565b9150509250925092565b600081519050919050565b7f4e487b7100000000000000000000000000000000000000000000000000000000600052602260045260246000fd5b600060028204905060018216806200038a57607f821691505b602082108103620003a0576200039f62000342565b5b50919050565b60008190508160005260206000209050919050565b60006020601f8301049050919050565b600082821b905092915050565b6000600883026200040a7fffffffffffffffffffffffffffffffffffffffffffffffffffffffffffffffff82620003cb565b620004168683620003cb565b95508019841693508086168417925050509392505050565b6000819050919050565b6000819050919050565b6000620004636200045d62000457846200042e565b62000438565b6200042e565b9050919050565b6000819050919050565b6200047f8362000442565b620004976200048e826200046a565b848454620003d8565b825550505050565b600090565b620004ae6200049f565b620004bb81848462000474565b505050565b5b81811015620004e357620004d7600082620004a4565b600181019050620004c1565b5050565b601f8211156200053257620004fc81620003a6565b6200050784620003bb565b8101602085101562000517578190505b6200052f6200052685620003bb565b830182620004c0565b50505b505050565b600082821c905092915050565b6000620005576000198460080262000537565b1980831691505092915050565b600062000572838362000544565b9150826002028217905092915050565b6200058d8262000337565b67ffffffffffffffff811115620005a957620005a8620000d4565b5b620005b5825462000371565b620005c2828285620004e7565b600060209050601f831160018114620005fa5760008415620005e5578287015190505b620005f1858262000564565b86555062000661565b601f1984166200060a86620003a6565b60005b8281101562000634578489015182556001820191506020850194506020810190506200060d565b8683101562000654578489015162000650601f89168262000544565b8355505b6001600288020188555050505b505050505050565b61105080620006796000396000f3fe608060405234801561001057600080fd5b50600436106100575760003560e01c8063249dc8d71461005c578063466229b214610078578063a6de345414610096578063b92f2e28146100c6578063fe93f640146100e2575b600080fd5b610076600480360381019061007191906106ce565b610100565b005b6100806102c8565b60405161008d91906107c5565b60405180910390f35b6100b060048036038101906100ab919061081d565b610356565b6040516100bd91906107c5565b60405180910390f35b6100e060048036038101906100db91906106ce565b610402565b005b6100ea610489565b6040516100f791906107c5565b60405180910390f35b6000806001905060005b6003805490508110156101a657836040516020016101289190610886565b60405160208183030381529060405280519060200120600382815481106101525761015161089d565b5b9060005260206000200160405160200161016c91906109c4565b604051602081830303815290604052805190602001200361019357600091508092506101a6565b808061019e90610a0a565b91505061010a565b600082146101e9576040517f08c379a00000000000000000000000000000000000000000000000000000000081526004016101e090610a9e565b60405180910390fd5b600360016003805490506101fd9190610abe565b8154811061020e5761020d61089d565b5b906000526020600020016003848154811061022c5761022b61089d565b5b9060005260206000200190816102429190610cb4565b50600380548061025557610254610d9c565b5b6001900381819060005260206000200160006102719190610517565b9055846040516102819190610886565b60405180910390207f4b9071e7b03b4b06bacbddc3eecdf54ba224724ff6e21289afa65164fef3aa8560036040516102b99190610f26565b60405180910390a25050505050565b600080546102d5906108fb565b80601f0160208091040260200160405190810160405280929190818152602001828054610301906108fb565b801561034e5780601f106103235761010080835404028352916020019161034e565b820191906000526020600020905b81548152906001019060200180831161033157829003601f168201915b505050505081565b6003818154811061036657600080fd5b906000526020600020016000915090508054610381906108fb565b80601f01602080910402602001604051908101604052809291908181526020018280546103ad906108fb565b80156103fa5780601f106103cf576101008083540402835291602001916103fa565b820191906000526020600020905b8154815290600101906020018083116103dd57829003601f168201915b505050505081565b6003819080600181540180825580915050600190039060005260206000200160009091909190915090816104369190610f48565b50816040516104459190610886565b60405180910390207f36a2255f993afc0e44343a3f302da5f06b059d5e2fd2dac020ea8a49d097f113600360405161047d9190610f26565b60405180910390a25050565b60018054610496906108fb565b80601f01602080910402602001604051908101604052809291908181526020018280546104c2906108fb565b801561050f5780601f106104e45761010080835404028352916020019161050f565b820191906000526020600020905b8154815290600101906020018083116104f257829003601f168201915b505050505081565b508054610523906108fb565b6000825580601f106105355750610554565b601f0160209004906000526020600020908101906105539190610557565b5b50565b5b80821115610570576000816000905550600101610558565b5090565b6000604051905090565b600080fd5b600080fd5b600080fd5b600080fd5b6000601f19601f8301169050919050565b7f4e487b7100000000000000000000000000000000000000000000000000000000600052604160045260246000fd5b6105db82610592565b810181811067ffffffffffffffff821117156105fa576105f96105a3565b5b80604052505050565b600061060d610574565b905061061982826105d2565b919050565b600067ffffffffffffffff821115610639576106386105a3565b5b61064282610592565b9050602081019050919050565b82818337600083830152505050565b600061067161066c8461061e565b610603565b90508281526020810184848401111561068d5761068c61058d565b5b61069884828561064f565b509392505050565b600082601f8301126106b5576106b4610588565b5b81356106c584826020860161065e565b91505092915050565b600080604083850312156106e5576106e461057e565b5b600083013567ffffffffffffffff81111561070357610702610583565b5b61070f858286016106a0565b925050602083013567ffffffffffffffff8111156107305761072f610583565b5b61073c858286016106a0565b9150509250929050565b600081519050919050565b600082825260208201905092915050565b60005b83811015610780578082015181840152602081019050610765565b60008484015250505050565b600061079782610746565b6107a18185610751565b93506107b1818560208601610762565b6107ba81610592565b840191505092915050565b600060208201905081810360008301526107df818461078c565b905092915050565b6000819050919050565b6107fa816107e7565b811461080557600080fd5b50565b600081359050610817816107f1565b92915050565b6000602082840312156108335761083261057e565b5b600061084184828501610808565b91505092915050565b600081905092915050565b600061086082610746565b61086a818561084a565b935061087a818560208601610762565b80840191505092915050565b60006108928284610855565b915081905092915050565b7f4e487b7100000000000000000000000000000000000000000000000000000000600052603260045260246000fd5b7f4e487b7100000000000000000000000000000000000000000000000000000000600052602260045260246000fd5b6000600282049050600182168061091357607f821691505b602082108103610926576109256108cc565b5b50919050565b60008190508160005260206000209050919050565b6000815461094e816108fb565b610958818661084a565b945060018216600081146109735760018114610988576109bb565b60ff19831686528115158202860193506109bb565b6109918561092c565b60005b838110156109b357815481890152600182019150602081019050610994565b838801955050505b50505092915050565b60006109d08284610941565b915081905092915050565b7f4e487b7100000000000000000000000000000000000000000000000000000000600052601160045260246000fd5b6000610a15826107e7565b91507fffffffffffffffffffffffffffffffffffffffffffffffffffffffffffffffff8203610a4757610a466109db565b5b600182019050919050565b7f50726f64756374206973206475706c6963617465000000000000000000000000600082015250565b6000610a88601483610751565b9150610a9382610a52565b602082019050919050565b60006020820190508181036000830152610ab781610a7b565b9050919050565b6000610ac9826107e7565b9150610ad4836107e7565b9250828203905081811115610aec57610aeb6109db565b5b92915050565b600081549050610b01816108fb565b9050919050565b60008190508160005260206000209050919050565b60006020601f8301049050919050565b600082821b905092915050565b600060088302610b6a7fffffffffffffffffffffffffffffffffffffffffffffffffffffffffffffffff82610b2d565b610b748683610b2d565b95508019841693508086168417925050509392505050565b6000819050919050565b6000610bb1610bac610ba7846107e7565b610b8c565b6107e7565b9050919050565b6000819050919050565b610bcb83610b96565b610bdf610bd782610bb8565b848454610b3a565b825550505050565b600090565b610bf4610be7565b610bff818484610bc2565b505050565b5b81811015610c2357610c18600082610bec565b600181019050610c05565b5050565b601f821115610c6857610c398161092c565b610c4284610b1d565b81016020851015610c51578190505b610c65610c5d85610b1d565b830182610c04565b50505b505050565b600082821c905092915050565b6000610c8b60001984600802610c6d565b1980831691505092915050565b6000610ca48383610c7a565b9150826002028217905092915050565b818103610cc2575050610d9a565b610ccb82610af2565b67ffffffffffffffff811115610ce457610ce36105a3565b5b610cee82546108fb565b610cf9828285610c27565b6000601f831160018114610d285760008415610d16578287015490505b610d208582610c98565b865550610d93565b601f198416610d3687610b08565b9650610d418661092c565b60005b82811015610d6957848901548255600182019150600185019450602081019050610d44565b86831015610d865784890154610d82601f891682610c7a565b8355505b6001600288020188555050505b5050505050505b565b7f4e487b7100000000000000000000000000000000000000000000000000000000600052603160045260246000fd5b600081549050919050565b600082825260208201905092915050565b60008190508160005260206000209050919050565b600082825260208201905092915050565b60008154610e1a816108fb565b610e248186610dfc565b94506001821660008114610e3f5760018114610e5557610e88565b60ff198316865281151560200286019350610e88565b610e5e8561092c565b60005b83811015610e8057815481890152600182019150602081019050610e61565b808801955050505b50505092915050565b6000610e9d8383610e0d565b905092915050565b6000600182019050919050565b6000610ebd82610dcb565b610ec78185610dd6565b935083602082028501610ed985610de7565b8060005b85811015610f1457848403895281610ef58582610e91565b9450610f0083610ea5565b925060208a01995050600181019050610edd565b50829750879550505050505092915050565b60006020820190508181036000830152610f408184610eb2565b905092915050565b610f5182610746565b67ffffffffffffffff811115610f6a57610f696105a3565b5b610f7482546108fb565b610f7f828285610c27565b600060209050601f831160018114610fb25760008415610fa0578287015190505b610faa8582610c98565b865550611012565b601f198416610fc08661092c565b60005b82811015610fe857848901518255600182019150602085019450602081019050610fc3565b868310156110055784890151611001601f891682610c7a565b8355505b6001600288020188555050505b50505050505056fea2646970667358221220d957b9b9afc41bd5087f7c5c3127dbc9dce37640e1d37a589d85014b886125d564736f6c63430008130033a2646970667358221220befb0c93d88403de17459808cfcc1cc8377512a3cf5bf3be368a19e7c03f23fe64736f6c63430008130033",
  "linkReferences": {},
  "deployedLinkReferences": {}
}